{
  "_format": "hh-sol-artifact-1",
  "contractName": "Vote",
  "sourceName": "contracts/Vote.sol",
  "abi": [
    {
      "inputs": [
        {
          "internalType": "uint8",
          "name": "_choices",
          "type": "uint8"
        },
        {
          "internalType": "uint256",
          "name": "daysAfter",
          "type": "uint256"
        }
      ],
      "stateMutability": "nonpayable",
      "type": "constructor"
    },
    {
      "anonymous": false,
      "inputs": [
        {
          "indexed": false,
          "internalType": "uint24[]",
          "name": "results",
          "type": "uint24[]"
        }
      ],
      "name": "Results",
      "type": "event"
    },
    {
      "stateMutability": "payable",
      "type": "fallback"
    },
    {
      "inputs": [],
      "name": "choices",
      "outputs": [
        {
          "internalType": "uint8",
          "name": "",
          "type": "uint8"
        }
      ],
      "stateMutability": "view",
      "type": "function"
    },
    {
      "inputs": [],
      "name": "endTimestamp",
      "outputs": [
        {
          "internalType": "uint256",
          "name": "",
          "type": "uint256"
        }
      ],
      "stateMutability": "view",
      "type": "function"
    },
    {
      "inputs": [],
      "name": "readAllVote",
      "outputs": [],
      "stateMutability": "nonpayable",
      "type": "function"
    },
    {
      "inputs": [
        {
          "internalType": "uint8",
          "name": "id",
          "type": "uint8"
        }
      ],
      "name": "readVoteById",
      "outputs": [
        {
          "internalType": "uint24",
          "name": "",
          "type": "uint24"
        }
      ],
      "stateMutability": "view",
      "type": "function"
    },
    {
      "inputs": [
        {
          "internalType": "uint8",
          "name": "_choiceId",
          "type": "uint8"
        }
      ],
      "name": "vote",
      "outputs": [],
      "stateMutability": "nonpayable",
      "type": "function"
    },
    {
      "inputs": [
        {
          "internalType": "address",
          "name": "",
          "type": "address"
        }
      ],
      "name": "voterChoices",
      "outputs": [
        {
          "internalType": "uint8",
          "name": "",
          "type": "uint8"
        }
      ],
      "stateMutability": "view",
      "type": "function"
    },
    {
      "stateMutability": "payable",
      "type": "receive"
    }
  ],
  "bytecode": "0x608060405234801561001057600080fd5b506040516107a93803806107a983398101604081905261002f91610060565b6000805460ff191660ff841617905561004b81620151806100aa565b61005590426100c7565b600155506100da9050565b6000806040838503121561007357600080fd5b825160ff8116811461008457600080fd5b6020939093015192949293505050565b634e487b7160e01b600052601160045260246000fd5b80820281158282048414176100c1576100c1610094565b92915050565b808201808211156100c1576100c1610094565b6106c0806100e96000396000f3fe6080604052600436106100595760003560e01c8063215a5ed01461011857806366f6288d1461012f57806379b5242d14610176578063a85adeab146101aa578063b3f98adc146101ce578063bfd90760146101ee576100bd565b366100bd5760405162461bcd60e51b815260206004820152602960248201527f4572726f723a20726563656976652066756e6374696f6e2063616e6e6f742062604482015268329031b0b63632b21760b91b60648201526084015b60405180910390fd5b60405162461bcd60e51b815260206004820152602a60248201527f4572726f723a2066616c6c6261636b2066756e6374696f6e2063616e6e6f742060448201526931329031b0b63632b21760b11b60648201526084016100b4565b34801561012457600080fd5b5061012d610208565b005b34801561013b57600080fd5b5061015f61014a36600461054b565b60026020526000908152604090205460ff1681565b60405160ff90911681526020015b60405180910390f35b34801561018257600080fd5b5061019661019136600461057b565b610333565b60405162ffffff909116815260200161016d565b3480156101b657600080fd5b506101c060015481565b60405190815260200161016d565b3480156101da57600080fd5b5061012d6101e936600461057b565b6103f3565b3480156101fa57600080fd5b5060005461015f9060ff1681565b60015442116102505760405162461bcd60e51b8152602060048201526014602482015273159bdd1a5b99c81a185cc81b9bdd08195b99195960621b60448201526064016100b4565b6000805460ff1667ffffffffffffffff81111561026f5761026f61059e565b604051908082528060200260200182016040528015610298578160200160208202803683370190505b50905060005b60005460ff90811690821610156102f8576102bd6101918260016105ca565b828260ff16815181106102d2576102d26105e9565b62ffffff90921660209283029190910190910152806102f0816105ff565b91505061029e565b507fbd2fe10b4ac69495f8a284665cd7fda7c98d9e8b8993d636215cfa57365e3d5081604051610328919061061e565b60405180910390a150565b6000600154421161037d5760405162461bcd60e51b8152602060048201526014602482015273159bdd1a5b99c81a185cc81b9bdd08195b99195960621b60448201526064016100b4565b8160008160ff1611801561039a575060005460ff90811690821611155b6103d75760405162461bcd60e51b815260206004820152600e60248201526d496e76616c69642063686f69636560901b60448201526064016100b4565b505060ff1660009081526003602052604090205462ffffff1690565b60015442106104375760405162461bcd60e51b815260206004820152601060248201526f159bdd1a5b99c81a185cc8195b99195960821b60448201526064016100b4565b8060008160ff16118015610454575060005460ff90811690821611155b6104915760405162461bcd60e51b815260206004820152600e60248201526d496e76616c69642063686f69636560901b60448201526064016100b4565b3360009081526002602052604090205460ff16156104ea5760405162461bcd60e51b8152602060048201526016602482015275165bdd481a185d9948185b1c9958591e481d9bdd195960521b60448201526064016100b4565b336000908152600260209081526040808320805460ff191660ff871690811790915583526003909152812080546001929061052b90849062ffffff16610667565b92506101000a81548162ffffff021916908362ffffff1602179055505050565b60006020828403121561055d57600080fd5b81356001600160a01b038116811461057457600080fd5b9392505050565b60006020828403121561058d57600080fd5b813560ff8116811461057457600080fd5b634e487b7160e01b600052604160045260246000fd5b634e487b7160e01b600052601160045260246000fd5b60ff81811683821601908111156105e3576105e36105b4565b92915050565b634e487b7160e01b600052603260045260246000fd5b600060ff821660ff8103610615576106156105b4565b60010192915050565b6020808252825182820181905260009190848201906040850190845b8181101561065b57835162ffffff168352928401929184019160010161063a565b50909695505050505050565b62ffffff818116838216019080821115610683576106836105b4565b509291505056fea26469706673582212205835f6a7676499d4390731d74d07941219e4521a090c32f29c6c890284eca9ce64736f6c63430008110033",
  "linkReferences": {},
  "deployedLinkReferences": {}
}